:100000000C94B5000C94DD000C94DD000C94DD0024
:100010000C94B3020C94DD000C94DD000C94DD0014
:100020000C94DD000C94DD000C94DD000C94DD00DC
:100030000C94DD000C94DD000C94DD000C94DD00CC
:100040000C9411020C94DD000C9481020C945B0260
:100050000C94DD000C94DD000C94DD000C94DD00AC
:100060000C94DD000C94DD00001E0019171516031A
:10007000001F1D1A18090000004348004C71310090
:1000800000007A736177320000637864653433006E
:100090000020766674723500006E626867793600FB
:1000A00000006D6A75373800002C6B696F302100D5
:1000B000002E2F6C3B702D00000027005B2B0000F2
:1000C00045490A5D00000000000000000000080033
:1000D0000000000000000000000000000000070019
:1000E0000200001B040000000000000000000000EF
:1000F0000000000000000000004300004D00000070
:100100000000000000000004000000000000001BD0
:1001100000000000000000000000000000000000DF
:1001200000000000000000000000000000000000CF
:1001300000002F000000000000000000000500008B
:1001400000000000000000000000000000000000AF
:100150000013000E1100000044220B000F010000EC
:1001600000000C0000050000B00511241FBECFEFF9
:10017000D8E0DEBFCDBF11E0A0E0B1E0E4EDFBE0F0
:1001800002C005900D92AE31B107D9F721E0AEE182
:10019000B1E001C01D92A53FB207E1F710E0C5EB49
:1001A000D0E004C02197FE010E94DD05C43BD107C9
:1001B000C9F70E94A0030C94E8050C940000CF92AC
:1001C000DF92EF92FF920F931F93CF93DF936C0117
:1001D0007A018B01C0E0D0E0CE15DF0581F0D801B7
:1001E0006D918D01D601ED91FC910190F081E02D92
:1001F000C6010995892B11F02196EECF7E01C7012A
:10020000DF91CF911F910F91FF90EF90DF90CF90F2
:100210000895089580E090E00895FC01538D448D89
:10022000252F30E0842F90E0821B930B541710F0A1
:10023000CF96089501970895FC01918D828D9817AE
:1002400061F0828DDF01A80FB11D5D968C91928DBA
:100250009F5F9F73928F90E008958FEF9FEF0895B7
:10026000FC01918D828D981731F0828DE80FF11D80
:10027000858D90E008958FEF9FEF0895FC01918D9B
:10028000228D892F90E0805C9F4F821B91098F7394
:100290009927089588E591E00E943E0121E0892B8D
:1002A00009F420E0822F0895FC01848DDF01A80F5E
:1002B000B11DA35ABF4F2C91848D90E001968F738E
:1002C0009927848FA689B7892C93A089B1898C91AD
:1002D000837080648C93938D848D981306C00288FC
:1002E000F389E02D80818F7D80830895EF92FF92C6
:1002F0000F931F93CF93DF93EC0181E0888F9B8D49
:100300008C8D981305C0E889F989808185FD26C008
:10031000F62E0B8D10E00F5F1F4F0F731127E02E8D
:100320008C8DE8120CC00FB607FCFACFE889F9896A
:10033000808185FFF5CFCE010E945401F1CF8B8DD6
:10034000FE01E80FF11DE35AFF4FF0829FB7F894CA
:100350000B8FEA89FB89808180620AC09FB7F8947D
:10036000EE89FF896083E889F989808183708064E0
:1003700080839FBF81E090E0DF91CF911F910F912B
:10038000FF90EF900895682F88E591E00C94760136
:10039000CF93DF93EC01888D8823C9F0EA89FB892C
:1003A000808185FD05C0A889B9898C9186FD0FC023
:1003B0000FB607FCF5CF808185FFF2CFA889B989F8
:1003C0008C9185FFEDCFCE010E945401E7CFDF91E4
:1003D000CF91089580E090E0892B29F00E944A0196
:1003E00081110C9400000895CF93409AC8E78EEFD6
:1003F00090E00E94C301C150D1F780EB90E00E94D1
:10040000C30184E090E00E94C3011092280140984B
:10041000CF9108953B98089543983B9A08950E9480
:10042000E3051F920F920FB60F9211242F933F9363
:100430008F939F93AF93BF938091540190915501F7
:10044000A0915601B09157013091530126E0230F3E
:100450002D3720F40296A11DB11D05C029E8230FF8
:100460000396A11DB11D20935301809354019093D5
:100470005501A0935601B093570180914F0190917F
:100480005001A0915101B09152010196A11DB11DE1
:1004900080934F0190935001A0935101B09352016A
:1004A000BF91AF919F918F913F912F910F900FBE70
:1004B0000F901F9018951F920F920FB60F92112454
:1004C0002F933F934F935F936F937F938F939F935C
:1004D000AF93BF93EF93FF9388E591E00E9454019F
:1004E000FF91EF91BF91AF919F918F917F916F910C
:1004F0005F914F913F912F910F900FBE0F901F90E2
:1005000018951F920F920FB60F9211242F938F936D
:100510009F93EF93FF93E0916801F09169018081CF
:10052000E0916E01F0916F0182FD12C09081809187
:1005300071018F5F8F7320917201821751F0E091EA
:100540007101F0E0E85AFE4F958F8093710101C070
:100550008081FF91EF919F918F912F910F900FBE0E
:100560000F901F9018951F920F920FB60F921124A3
:100570002F933F938F939F93AF93BF93EF93FF93EB
:100580003299D1C0809149018111CDC0809124015F
:10059000811108C0339924C081E080932401109216
:1005A000220125C080912201883080F4339B0CC049
:1005B0009091230121E030E0082E01C0220F0A941F
:1005C000EAF7292B209323018F5F03C0883021F4A1
:1005D00089E080932201A7C0109224011092220189
:1005E00080912301803F31F481E080931E011092BD
:1005F000230199C0809123018A3F21F481E08093F7
:100600004C0191C0809123018E3F21F481E08093C1
:100610004A0189C080912301803E21F481E08093CA
:10062000210181C080912301813E21F481E08093EA
:10063000200179C080912001882349F08091230115
:10064000873729F080912301843109F066C08091B9
:100650001E018823B1F180912301823109F460C029
:1006600080912301893509F45BC010921E018091AD
:100670002101E0912301E7FD0AC0F0E0882319F091
:10068000E851FF4F02C0E859FF4FE491E7FDEFEF5B
:1006900010922101EF3F09F446C0AE2FB0E093E085
:1006A000B595A7959A95E1F7A75CBE4F2C91E77099
:1006B00081E090E001C0880FEA95EAF780958223F7
:1006C00027C080912101E0912301E7FD0AC0F0E0FD
:1006D000882319F0E851FF4F02C0E859FF4FE49119
:1006E000E7FDEFEF10922101EF3FE9F0AE2FB0E010
:1006F00083E0B595A7958A95E1F7A75CBE4F2C914D
:10070000E77081E090E001C0880FEA95EAF7822B5C
:100710008C9381E080934E0106C01092200197CF08
:1007200010921F01A2CFFF91EF91BF91AF919F91C6
:100730008F913F912F910F900FBE0F901F901895A2
:10074000789484B5826084BD84B5816084BD85B5AC
:10075000826085BD85B5816085BD80916E008160B8
:1007600080936E001092810080918100826080935E
:100770008100809181008160809381008091800060
:100780008160809380008091B10084608093B1008B
:100790008091B00081608093B00080917A00846085
:1007A00080937A0080917A00826080937A008091B1
:1007B0007A008E7F80937A0080917A00806880939F
:1007C0007A001092C1008091680082608093680076
:1007D00080E090E0FC01E75CFE4F108201968031E2
:1007E0009105C1F710922401109223011092220169
:1007F000109221011092200110924E011092490195
:1008000010921F0110924B0110924C0110924A015C
:10081000429A80916C00846080936C0089B18470EE
:1008200080932501109228018FEC90E0909327018E
:100830008093260110924D01E9E2F1E089E391E015
:1008400011928E179F07E1F785B1876C85B988B142
:10085000806388B98BB1886F8BB9E0916801F091A2
:10086000690182E08083E0916401F091650183E099
:100870008083E0916601F091670180E480831092AB
:100880007001E0916C01F0916D0186E08083E09150
:100890006A01F0916B01808180618083E0916A013F
:1008A000F0916B01808188608083E0916A01F09112
:1008B0006B01808180688083E0916A01F0916B0117
:1008C00080818F7D8083389A78940E94F401772408
:1008D00073947EE1872E71E0972ECC24C394D12CA3
:1008E000F4E5AF2EF2E0BF2E89B1182F147082FF0D
:1008F00006C080912501811102C00E94F40110936D
:10090000250189B186958695869587258170C82FA2
:1009100020E0D22F4C9BC260349BC460359BC860E2
:100920004D9BC0614E9BC0624F9BC064189BC068CA
:10093000199BD1601A9BD2601E9BD4601F9BD8600C
:1009400080912601909127018C179D0769F1A2E102
:10095000B1E081E090E0ED912E2F2770A60102C05A
:10096000440F551F2A95E2F79A01F0E0AE014823A3
:10097000592363E0F595E7956A95E1F7E75DFE4F4A
:10098000452B19F03081232B03C020953081232380
:100990002083880F991F8A169B06E9F670924D01F5
:1009A000D0932701C093260188E591E00E943E0183
:1009B000181619063CF588E591E00E941C01823961
:1009C00029F4909128019111109228019091280109
:1009D000992331F0682F88E591E00E94760112C0DA
:1009E000823959F08E3961F08C3861F4409A80EF89
:1009F00090E00E94C301409805C070924E0102C071
:100A00007092280180914E01811190C080914D011A
:100A100081118CC032C0802F8770960102C0220FD6
:100A2000331F8A95E2F7C901980143E03595279570
:100A30004A95E1F7F901E75CFE4F4081482309F050
:100A40007DC0F901E75DFE4F9081892309F076C0F2
:100A5000F62E0F5F1F4F6F2DF02E00381105D9F6BF
:100A60006F3F09F468C0862F806890E00E94C30140
:100A7000409810924E0110924D0180914C018823B4
:100A800009F449C080914B01882309F442C0709257
:100A9000490180ED97E0329902C00197E1F7429851
:100AA0003A9AC5010197F1F70E940C023A9888E939
:100AB0009AE3329B03C00197E1F748C009E010E0D8
:100AC000E12CFF24F394E0FE03C00E940A0202C05E
:100AD0000E940C0280ED97E0329903C00197E1F784
:100AE00035C080ED97E0329B03C00197E1F72EC03F
:100AF000F694E7940150110931F70E940A0280ED43
:100B000097E0339B26C00197E1F7109249011092BC
:100B10004B0110924C0180914A01882321F01092E0
:100B20004B0110924A010E94EA01DECE409A00E099
:100B300010E06FEF91CF80EC90E098CF6F3F09F419
:100B400088CF88E591E00E94760183CF0E940A0257
:100B5000DCCF80ED97E0329BD8CF0197E1F7D5CF7E
:100B6000E8E5F1E01382128288EE93E0A0E0B0E0C5
:100B700084839583A683B78384E091E09183808307
:100B800085EC90E09587848784EC90E09787868752
:100B900080EC90E0918B808B81EC90E0938B828B4A
:100BA00082EC90E0958B848B86EC90E0978B868B23
:100BB000118E128E138E148E0895EE0FFF1F059066
:100BC000F491E02D099481E090E0F8940C94E8050C
:040BD000F894FFCFC7
:100BD400000000007601DF000D01C8013E011C0188
:0E0BE40030010C110513140444437F00120766
:00000001FF
